{"abi":[{"type":"function","name":"__ZendToken_init","inputs":[{"name":"genesis_holder","type":"address","internalType":"address"}],"outputs":[],"stateMutability":"nonpayable"},{"type":"function","name":"allowance","inputs":[{"name":"owner","type":"address","internalType":"address"},{"name":"spender","type":"address","internalType":"address"}],"outputs":[{"name":"","type":"uint256","internalType":"uint256"}],"stateMutability":"view"},{"type":"function","name":"approve","inputs":[{"name":"spender","type":"address","internalType":"address"},{"name":"amount","type":"uint256","internalType":"uint256"}],"outputs":[{"name":"","type":"bool","internalType":"bool"}],"stateMutability":"nonpayable"},{"type":"function","name":"balanceOf","inputs":[{"name":"account","type":"address","internalType":"address"}],"outputs":[{"name":"","type":"uint256","internalType":"uint256"}],"stateMutability":"view"},{"type":"function","name":"decimals","inputs":[],"outputs":[{"name":"","type":"uint8","internalType":"uint8"}],"stateMutability":"view"},{"type":"function","name":"decreaseAllowance","inputs":[{"name":"spender","type":"address","internalType":"address"},{"name":"subtractedValue","type":"uint256","internalType":"uint256"}],"outputs":[{"name":"","type":"bool","internalType":"bool"}],"stateMutability":"nonpayable"},{"type":"function","name":"increaseAllowance","inputs":[{"name":"spender","type":"address","internalType":"address"},{"name":"addedValue","type":"uint256","internalType":"uint256"}],"outputs":[{"name":"","type":"bool","internalType":"bool"}],"stateMutability":"nonpayable"},{"type":"function","name":"name","inputs":[],"outputs":[{"name":"","type":"string","internalType":"string"}],"stateMutability":"view"},{"type":"function","name":"symbol","inputs":[],"outputs":[{"name":"","type":"string","internalType":"string"}],"stateMutability":"view"},{"type":"function","name":"totalSupply","inputs":[],"outputs":[{"name":"","type":"uint256","internalType":"uint256"}],"stateMutability":"view"},{"type":"function","name":"transfer","inputs":[{"name":"to","type":"address","internalType":"address"},{"name":"amount","type":"uint256","internalType":"uint256"}],"outputs":[{"name":"","type":"bool","internalType":"bool"}],"stateMutability":"nonpayable"},{"type":"function","name":"transferFrom","inputs":[{"name":"from","type":"address","internalType":"address"},{"name":"to","type":"address","internalType":"address"},{"name":"amount","type":"uint256","internalType":"uint256"}],"outputs":[{"name":"","type":"bool","internalType":"bool"}],"stateMutability":"nonpayable"},{"type":"event","name":"Approval","inputs":[{"name":"owner","type":"address","indexed":true,"internalType":"address"},{"name":"spender","type":"address","indexed":true,"internalType":"address"},{"name":"value","type":"uint256","indexed":false,"internalType":"uint256"}],"anonymous":false},{"type":"event","name":"Initialized","inputs":[{"name":"version","type":"uint8","indexed":false,"internalType":"uint8"}],"anonymous":false},{"type":"event","name":"Transfer","inputs":[{"name":"from","type":"address","indexed":true,"internalType":"address"},{"name":"to","type":"address","indexed":true,"internalType":"address"},{"name":"value","type":"uint256","indexed":false,"internalType":"uint256"}],"anonymous":false}],"bytecode":{"object":"0x608060405234801561001057600080fd5b50611138806100206000396000f3fe608060405234801561001057600080fd5b50600436106100d45760003560e01c806370a0823111610081578063a457c2d71161005b578063a457c2d7146101b4578063a9059cbb146101c7578063dd62ed3e146101da57600080fd5b806370a08231146101615780637a27cba41461019757806395d89b41146101ac57600080fd5b806323b872dd116100b257806323b872dd1461012c578063313ce5671461013f578063395093511461014e57600080fd5b806306fdde03146100d9578063095ea7b3146100f757806318160ddd1461011a575b600080fd5b6100e1610220565b6040516100ee9190610d8e565b60405180910390f35b61010a610105366004610e23565b6102b2565b60405190151581526020016100ee565b6035545b6040519081526020016100ee565b61010a61013a366004610e4d565b6102cc565b604051601281526020016100ee565b61010a61015c366004610e23565b6102f0565b61011e61016f366004610e89565b73ffffffffffffffffffffffffffffffffffffffff1660009081526033602052604090205490565b6101aa6101a5366004610e89565b61033c565b005b6100e1610555565b61010a6101c2366004610e23565b610564565b61010a6101d5366004610e23565b610635565b61011e6101e8366004610eab565b73ffffffffffffffffffffffffffffffffffffffff918216600090815260346020908152604080832093909416825291909152205490565b60606036805461022f90610ede565b80601f016020809104026020016040519081016040528092919081815260200182805461025b90610ede565b80156102a85780601f1061027d576101008083540402835291602001916102a8565b820191906000526020600020905b81548152906001019060200180831161028b57829003601f168201915b5050505050905090565b6000336102c0818585610643565b60019150505b92915050565b6000336102da8582856107f6565b6102e58585856108cd565b506001949350505050565b33600081815260346020908152604080832073ffffffffffffffffffffffffffffffffffffffff871684529091528120549091906102c09082908690610337908790610f31565b610643565b600054610100900460ff161580801561035c5750600054600160ff909116105b806103765750303b158015610376575060005460ff166001145b610407576040517f08c379a000000000000000000000000000000000000000000000000000000000815260206004820152602e60248201527f496e697469616c697a61626c653a20636f6e747261637420697320616c72656160448201527f647920696e697469616c697a656400000000000000000000000000000000000060648201526084015b60405180910390fd5b600080547fffffffffffffffffffffffffffffffffffffffffffffffffffffffffffffff00166001179055801561046557600080547fffffffffffffffffffffffffffffffffffffffffffffffffffffffffffff00ff166101001790555b6104d96040518060400160405280600c81526020017f7a6b4c656e6420546f6b656e00000000000000000000000000000000000000008152506040518060400160405280600481526020017f5a454e4400000000000000000000000000000000000000000000000000000000815250610b43565b6104ee826a52b7d2dcc80cd2e4000000610be4565b801561055157600080547fffffffffffffffffffffffffffffffffffffffffffffffffffffffffffff00ff169055604051600181527f7f26b83ff96e1f2b6a682f133852f6798a09c465da95921460cefb38474024989060200160405180910390a15b5050565b60606037805461022f90610ede565b33600081815260346020908152604080832073ffffffffffffffffffffffffffffffffffffffff8716845290915281205490919083811015610628576040517f08c379a000000000000000000000000000000000000000000000000000000000815260206004820152602560248201527f45524332303a2064656372656173656420616c6c6f77616e63652062656c6f7760448201527f207a65726f00000000000000000000000000000000000000000000000000000060648201526084016103fe565b6102e58286868403610643565b6000336102c08185856108cd565b73ffffffffffffffffffffffffffffffffffffffff83166106e5576040517f08c379a0000000000000000000000000000000000000000000000000000000008152602060048201526024808201527f45524332303a20617070726f76652066726f6d20746865207a65726f2061646460448201527f726573730000000000000000000000000000000000000000000000000000000060648201526084016103fe565b73ffffffffffffffffffffffffffffffffffffffff8216610788576040517f08c379a000000000000000000000000000000000000000000000000000000000815260206004820152602260248201527f45524332303a20617070726f766520746f20746865207a65726f20616464726560448201527f737300000000000000000000000000000000000000000000000000000000000060648201526084016103fe565b73ffffffffffffffffffffffffffffffffffffffff83811660008181526034602090815260408083209487168084529482529182902085905590518481527f8c5be1e5ebec7d5bd14f71427d1e84f3dd0314c0f7b2291e5b200ac8c7c3b925910160405180910390a3505050565b73ffffffffffffffffffffffffffffffffffffffff8381166000908152603460209081526040808320938616835292905220547fffffffffffffffffffffffffffffffffffffffffffffffffffffffffffffffff81146108c757818110156108ba576040517f08c379a000000000000000000000000000000000000000000000000000000000815260206004820152601d60248201527f45524332303a20696e73756666696369656e7420616c6c6f77616e636500000060448201526064016103fe565b6108c78484848403610643565b50505050565b73ffffffffffffffffffffffffffffffffffffffff8316610970576040517f08c379a000000000000000000000000000000000000000000000000000000000815260206004820152602560248201527f45524332303a207472616e736665722066726f6d20746865207a65726f20616460448201527f647265737300000000000000000000000000000000000000000000000000000060648201526084016103fe565b73ffffffffffffffffffffffffffffffffffffffff8216610a13576040517f08c379a000000000000000000000000000000000000000000000000000000000815260206004820152602360248201527f45524332303a207472616e7366657220746f20746865207a65726f206164647260448201527f657373000000000000000000000000000000000000000000000000000000000060648201526084016103fe565b73ffffffffffffffffffffffffffffffffffffffff831660009081526033602052604090205481811015610ac9576040517f08c379a000000000000000000000000000000000000000000000000000000000815260206004820152602660248201527f45524332303a207472616e7366657220616d6f756e742065786365656473206260448201527f616c616e6365000000000000000000000000000000000000000000000000000060648201526084016103fe565b73ffffffffffffffffffffffffffffffffffffffff80851660008181526033602052604080822086860390559286168082529083902080548601905591517fddf252ad1be2c89b69c2b068fc378daa952ba7f163c4a11628f55a4df523b3ef90610b369086815260200190565b60405180910390a36108c7565b600054610100900460ff16610bda576040517f08c379a000000000000000000000000000000000000000000000000000000000815260206004820152602b60248201527f496e697469616c697a61626c653a20636f6e7472616374206973206e6f74206960448201527f6e697469616c697a696e6700000000000000000000000000000000000000000060648201526084016103fe565b6105518282610cde565b73ffffffffffffffffffffffffffffffffffffffff8216610c61576040517f08c379a000000000000000000000000000000000000000000000000000000000815260206004820152601f60248201527f45524332303a206d696e7420746f20746865207a65726f20616464726573730060448201526064016103fe565b8060356000828254610c739190610f31565b909155505073ffffffffffffffffffffffffffffffffffffffff82166000818152603360209081526040808320805486019055518481527fddf252ad1be2c89b69c2b068fc378daa952ba7f163c4a11628f55a4df523b3ef910160405180910390a35050565b505050565b600054610100900460ff16610d75576040517f08c379a000000000000000000000000000000000000000000000000000000000815260206004820152602b60248201527f496e697469616c697a61626c653a20636f6e7472616374206973206e6f74206960448201527f6e697469616c697a696e6700000000000000000000000000000000000000000060648201526084016103fe565b6036610d818382610fe8565b506037610cd98282610fe8565b600060208083528351808285015260005b81811015610dbb57858101830151858201604001528201610d9f565b5060006040828601015260407fffffffffffffffffffffffffffffffffffffffffffffffffffffffffffffffe0601f8301168501019250505092915050565b803573ffffffffffffffffffffffffffffffffffffffff81168114610e1e57600080fd5b919050565b60008060408385031215610e3657600080fd5b610e3f83610dfa565b946020939093013593505050565b600080600060608486031215610e6257600080fd5b610e6b84610dfa565b9250610e7960208501610dfa565b9150604084013590509250925092565b600060208284031215610e9b57600080fd5b610ea482610dfa565b9392505050565b60008060408385031215610ebe57600080fd5b610ec783610dfa565b9150610ed560208401610dfa565b90509250929050565b600181811c90821680610ef257607f821691505b602082108103610f2b577f4e487b7100000000000000000000000000000000000000000000000000000000600052602260045260246000fd5b50919050565b808201808211156102c6577f4e487b7100000000000000000000000000000000000000000000000000000000600052601160045260246000fd5b7f4e487b7100000000000000000000000000000000000000000000000000000000600052604160045260246000fd5b601f821115610cd957600081815260208120601f850160051c81016020861015610fc15750805b601f850160051c820191505b81811015610fe057828155600101610fcd565b505050505050565b815167ffffffffffffffff81111561100257611002610f6b565b611016816110108454610ede565b84610f9a565b602080601f83116001811461106957600084156110335750858301515b7fffffffffffffffffffffffffffffffffffffffffffffffffffffffffffffffff600386901b1c1916600185901b178555610fe0565b6000858152602081207fffffffffffffffffffffffffffffffffffffffffffffffffffffffffffffffe08616915b828110156110b657888601518255948401946001909101908401611097565b50858210156110f257878501517fffffffffffffffffffffffffffffffffffffffffffffffffffffffffffffffff600388901b60f8161c191681555b5050505050600190811b0190555056fea26469706673582212207d896f1a0a151cc9ad8eaf9725d191a6801bca51815a8bda0d5e94c42d33fbe964736f6c63430008150033","linkReferences":{}},"methodIdentifiers":{"__ZendToken_init(address)":"7a27cba4","allowance(address,address)":"dd62ed3e","approve(address,uint256)":"095ea7b3","balanceOf(address)":"70a08231","decimals()":"313ce567","decreaseAllowance(address,uint256)":"a457c2d7","increaseAllowance(address,uint256)":"39509351","name()":"06fdde03","symbol()":"95d89b41","totalSupply()":"18160ddd","transfer(address,uint256)":"a9059cbb","transferFrom(address,address,uint256)":"23b872dd"},"id":2}