{"abi":[{"type":"constructor","inputs":[{"name":"initialOwner","type":"address","internalType":"address"}],"stateMutability":"nonpayable"},{"type":"function","name":"UPGRADE_INTERFACE_VERSION","inputs":[],"outputs":[{"name":"","type":"string","internalType":"string"}],"stateMutability":"view"},{"type":"function","name":"owner","inputs":[],"outputs":[{"name":"","type":"address","internalType":"address"}],"stateMutability":"view"},{"type":"function","name":"renounceOwnership","inputs":[],"outputs":[],"stateMutability":"nonpayable"},{"type":"function","name":"transferOwnership","inputs":[{"name":"newOwner","type":"address","internalType":"address"}],"outputs":[],"stateMutability":"nonpayable"},{"type":"function","name":"upgradeAndCall","inputs":[{"name":"proxy","type":"address","internalType":"contract ITransparentUpgradeableProxy"},{"name":"implementation","type":"address","internalType":"address"},{"name":"data","type":"bytes","internalType":"bytes"}],"outputs":[],"stateMutability":"payable"},{"type":"event","name":"OwnershipTransferred","inputs":[{"name":"previousOwner","type":"address","indexed":true,"internalType":"address"},{"name":"newOwner","type":"address","indexed":true,"internalType":"address"}],"anonymous":false},{"type":"error","name":"OwnableInvalidOwner","inputs":[{"name":"owner","type":"address","internalType":"address"}]},{"type":"error","name":"OwnableUnauthorizedAccount","inputs":[{"name":"account","type":"address","internalType":"address"}]}],"bytecode":{"object":"0x608060405234801561000f575f80fd5b5060405161063438038061063483398101604081905261002e916100bb565b806001600160a01b03811661005c57604051631e4fbdf760e01b81525f600482015260240160405180910390fd5b6100658161006c565b50506100e8565b5f80546001600160a01b038381166001600160a01b0319831681178455604051919092169283917f8be0079c531659141344cd1fd0a4f28419497f9722a3daafe3b4186f6b6457e09190a35050565b5f602082840312156100cb575f80fd5b81516001600160a01b03811681146100e1575f80fd5b9392505050565b61053f806100f55f395ff3fe608060405260043610610058575f3560e01c80639623609d116100415780639623609d146100aa578063ad3cb1cc146100bd578063f2fde38b14610112575f80fd5b8063715018a61461005c5780638da5cb5b14610072575b5f80fd5b348015610067575f80fd5b50610070610131565b005b34801561007d575f80fd5b505f5460405173ffffffffffffffffffffffffffffffffffffffff90911681526020015b60405180910390f35b6100706100b8366004610351565b610144565b3480156100c8575f80fd5b506101056040518060400160405280600581526020017f352e302e3000000000000000000000000000000000000000000000000000000081525081565b6040516100a1919061049f565b34801561011d575f80fd5b5061007061012c3660046104b8565b6101d5565b61013961023d565b6101425f61028f565b565b61014c61023d565b6040517f4f1ef28600000000000000000000000000000000000000000000000000000000815273ffffffffffffffffffffffffffffffffffffffff841690634f1ef2869034906101a290869086906004016104d3565b5f604051808303818588803b1580156101b9575f80fd5b505af11580156101cb573d5f803e3d5ffd5b5050505050505050565b6101dd61023d565b73ffffffffffffffffffffffffffffffffffffffff8116610231576040517f1e4fbdf70000000000000000000000000000000000000000000000000000000081525f60048201526024015b60405180910390fd5b61023a8161028f565b50565b5f5473ffffffffffffffffffffffffffffffffffffffff163314610142576040517f118cdaa7000000000000000000000000000000000000000000000000000000008152336004820152602401610228565b5f805473ffffffffffffffffffffffffffffffffffffffff8381167fffffffffffffffffffffffff0000000000000000000000000000000000000000831681178455604051919092169283917f8be0079c531659141344cd1fd0a4f28419497f9722a3daafe3b4186f6b6457e09190a35050565b73ffffffffffffffffffffffffffffffffffffffff8116811461023a575f80fd5b7f4e487b71000000000000000000000000000000000000000000000000000000005f52604160045260245ffd5b5f805f60608486031215610363575f80fd5b833561036e81610303565b9250602084013561037e81610303565b9150604084013567ffffffffffffffff8082111561039a575f80fd5b818601915086601f8301126103ad575f80fd5b8135818111156103bf576103bf610324565b604051601f82017fffffffffffffffffffffffffffffffffffffffffffffffffffffffffffffffe0908116603f0116810190838211818310171561040557610405610324565b8160405282815289602084870101111561041d575f80fd5b826020860160208301375f6020848301015280955050505050509250925092565b5f81518084525f5b8181101561046257602081850181015186830182015201610446565b505f6020828601015260207fffffffffffffffffffffffffffffffffffffffffffffffffffffffffffffffe0601f83011685010191505092915050565b602081525f6104b1602083018461043e565b9392505050565b5f602082840312156104c8575f80fd5b81356104b181610303565b73ffffffffffffffffffffffffffffffffffffffff83168152604060208201525f610501604083018461043e565b94935050505056fea2646970667358221220d0dc6c3c4ca85345e6df06f81e1f2f32bfcc1683dd5908728fdefb6f84868d5264736f6c63430008150033","linkReferences":{}},"methodIdentifiers":{"UPGRADE_INTERFACE_VERSION()":"ad3cb1cc","owner()":"8da5cb5b","renounceOwnership()":"715018a6","transferOwnership(address)":"f2fde38b","upgradeAndCall(address,address,bytes)":"9623609d"},"id":38}