{"abi":[{"type":"function","name":"__ZendToken_init","inputs":[{"name":"genesis_holder","type":"address","internalType":"address"}],"outputs":[],"stateMutability":"nonpayable"},{"type":"function","name":"__ZendToken_upgrade_v2","inputs":[{"name":"initial_owner","type":"address","internalType":"address"}],"outputs":[],"stateMutability":"nonpayable"},{"type":"function","name":"acceptOwnership","inputs":[],"outputs":[],"stateMutability":"nonpayable"},{"type":"function","name":"allowance","inputs":[{"name":"owner","type":"address","internalType":"address"},{"name":"spender","type":"address","internalType":"address"}],"outputs":[{"name":"","type":"uint256","internalType":"uint256"}],"stateMutability":"view"},{"type":"function","name":"approve","inputs":[{"name":"spender","type":"address","internalType":"address"},{"name":"amount","type":"uint256","internalType":"uint256"}],"outputs":[{"name":"","type":"bool","internalType":"bool"}],"stateMutability":"nonpayable"},{"type":"function","name":"balanceOf","inputs":[{"name":"account","type":"address","internalType":"address"}],"outputs":[{"name":"","type":"uint256","internalType":"uint256"}],"stateMutability":"view"},{"type":"function","name":"burn","inputs":[{"name":"account","type":"address","internalType":"address"},{"name":"amount","type":"uint256","internalType":"uint256"}],"outputs":[],"stateMutability":"nonpayable"},{"type":"function","name":"decimals","inputs":[],"outputs":[{"name":"","type":"uint8","internalType":"uint8"}],"stateMutability":"view"},{"type":"function","name":"decreaseAllowance","inputs":[{"name":"spender","type":"address","internalType":"address"},{"name":"subtractedValue","type":"uint256","internalType":"uint256"}],"outputs":[{"name":"","type":"bool","internalType":"bool"}],"stateMutability":"nonpayable"},{"type":"function","name":"increaseAllowance","inputs":[{"name":"spender","type":"address","internalType":"address"},{"name":"addedValue","type":"uint256","internalType":"uint256"}],"outputs":[{"name":"","type":"bool","internalType":"bool"}],"stateMutability":"nonpayable"},{"type":"function","name":"mint","inputs":[{"name":"account","type":"address","internalType":"address"},{"name":"amount","type":"uint256","internalType":"uint256"}],"outputs":[],"stateMutability":"nonpayable"},{"type":"function","name":"name","inputs":[],"outputs":[{"name":"","type":"string","internalType":"string"}],"stateMutability":"view"},{"type":"function","name":"owner","inputs":[],"outputs":[{"name":"","type":"address","internalType":"address"}],"stateMutability":"view"},{"type":"function","name":"pendingOwner","inputs":[],"outputs":[{"name":"","type":"address","internalType":"address"}],"stateMutability":"view"},{"type":"function","name":"renounceOwnership","inputs":[],"outputs":[],"stateMutability":"nonpayable"},{"type":"function","name":"symbol","inputs":[],"outputs":[{"name":"","type":"string","internalType":"string"}],"stateMutability":"view"},{"type":"function","name":"totalSupply","inputs":[],"outputs":[{"name":"","type":"uint256","internalType":"uint256"}],"stateMutability":"view"},{"type":"function","name":"transfer","inputs":[{"name":"to","type":"address","internalType":"address"},{"name":"amount","type":"uint256","internalType":"uint256"}],"outputs":[{"name":"","type":"bool","internalType":"bool"}],"stateMutability":"nonpayable"},{"type":"function","name":"transferFrom","inputs":[{"name":"from","type":"address","internalType":"address"},{"name":"to","type":"address","internalType":"address"},{"name":"amount","type":"uint256","internalType":"uint256"}],"outputs":[{"name":"","type":"bool","internalType":"bool"}],"stateMutability":"nonpayable"},{"type":"function","name":"transferOwnership","inputs":[{"name":"newOwner","type":"address","internalType":"address"}],"outputs":[],"stateMutability":"nonpayable"},{"type":"event","name":"Approval","inputs":[{"name":"owner","type":"address","indexed":true,"internalType":"address"},{"name":"spender","type":"address","indexed":true,"internalType":"address"},{"name":"value","type":"uint256","indexed":false,"internalType":"uint256"}],"anonymous":false},{"type":"event","name":"Initialized","inputs":[{"name":"version","type":"uint8","indexed":false,"internalType":"uint8"}],"anonymous":false},{"type":"event","name":"OwnershipTransferStarted","inputs":[{"name":"previousOwner","type":"address","indexed":true,"internalType":"address"},{"name":"newOwner","type":"address","indexed":true,"internalType":"address"}],"anonymous":false},{"type":"event","name":"OwnershipTransferred","inputs":[{"name":"previousOwner","type":"address","indexed":true,"internalType":"address"},{"name":"newOwner","type":"address","indexed":true,"internalType":"address"}],"anonymous":false},{"type":"event","name":"Transfer","inputs":[{"name":"from","type":"address","indexed":true,"internalType":"address"},{"name":"to","type":"address","indexed":true,"internalType":"address"},{"name":"value","type":"uint256","indexed":false,"internalType":"uint256"}],"anonymous":false}],"bytecode":{"object":"0x608060405234801561000f575f80fd5b5061179d8061001d5f395ff3fe608060405234801561000f575f80fd5b5060043610610163575f3560e01c80637a27cba4116100c7578063a9059cbb1161007d578063dd62ed3e11610063578063dd62ed3e146102ef578063e30c397814610334578063f2fde38b14610352575f80fd5b8063a9059cbb146102c9578063d46404cf146102dc575f80fd5b806395d89b41116100ad57806395d89b411461029b5780639dc29fac146102a3578063a457c2d7146102b6575f80fd5b80637a27cba4146102495780638da5cb5b1461025c575f80fd5b8063395093511161011c57806370a082311161010257806370a0823114610204578063715018a61461023957806379ba509714610241575f80fd5b806339509351146101dc57806340c10f19146101ef575f80fd5b806318160ddd1161014c57806318160ddd146101a857806323b872dd146101ba578063313ce567146101cd575f80fd5b806306fdde0314610167578063095ea7b314610185575b5f80fd5b61016f610365565b60405161017c9190611409565b60405180910390f35b61019861019336600461149a565b6103f5565b604051901515815260200161017c565b6035545b60405190815260200161017c565b6101986101c83660046114c2565b61040e565b6040516012815260200161017c565b6101986101ea36600461149a565b610431565b6102026101fd36600461149a565b61047c565b005b6101ac6102123660046114fb565b73ffffffffffffffffffffffffffffffffffffffff165f9081526033602052604090205490565b610202610492565b6102026104a5565b6102026102573660046114fb565b61055f565b60655473ffffffffffffffffffffffffffffffffffffffff165b60405173ffffffffffffffffffffffffffffffffffffffff909116815260200161017c565b61016f61076c565b6102026102b136600461149a565b61077b565b6101986102c436600461149a565b61078d565b6101986102d736600461149a565b61085d565b6102026102ea3660046114fb565b61086a565b6101ac6102fd36600461151b565b73ffffffffffffffffffffffffffffffffffffffff9182165f90815260346020908152604080832093909416825291909152205490565b60975473ffffffffffffffffffffffffffffffffffffffff16610276565b6102026103603660046114fb565b610931565b6060603680546103749061154c565b80601f01602080910402602001604051908101604052809291908181526020018280546103a09061154c565b80156103eb5780601f106103c2576101008083540402835291602001916103eb565b820191905f5260205f20905b8154815290600101906020018083116103ce57829003601f168201915b5050505050905090565b5f336104028185856109e1565b60019150505b92915050565b5f3361041b858285610b94565b610426858585610c6a565b506001949350505050565b335f81815260346020908152604080832073ffffffffffffffffffffffffffffffffffffffff87168452909152812054909190610402908290869061047790879061159d565b6109e1565b610484610ede565b61048e8282610f5f565b5050565b61049a610ede565b6104a35f611052565b565b609754339073ffffffffffffffffffffffffffffffffffffffff168114610553576040517f08c379a000000000000000000000000000000000000000000000000000000000815260206004820152602960248201527f4f776e61626c6532537465703a2063616c6c6572206973206e6f74207468652060448201527f6e6577206f776e6572000000000000000000000000000000000000000000000060648201526084015b60405180910390fd5b61055c81611052565b50565b5f54610100900460ff161580801561057d57505f54600160ff909116105b806105965750303b15801561059657505f5460ff166001145b610622576040517f08c379a000000000000000000000000000000000000000000000000000000000815260206004820152602e60248201527f496e697469616c697a61626c653a20636f6e747261637420697320616c72656160448201527f647920696e697469616c697a6564000000000000000000000000000000000000606482015260840161054a565b5f80547fffffffffffffffffffffffffffffffffffffffffffffffffffffffffffffff00166001179055801561067e575f80547fffffffffffffffffffffffffffffffffffffffffffffffffffffffffffff00ff166101001790555b6106f26040518060400160405280600c81526020017f7a6b4c656e6420546f6b656e00000000000000000000000000000000000000008152506040518060400160405280600481526020017f5a454e4400000000000000000000000000000000000000000000000000000000815250611083565b610707826a52b7d2dcc80cd2e4000000610f5f565b801561048e575f80547fffffffffffffffffffffffffffffffffffffffffffffffffffffffffffff00ff169055604051600181527f7f26b83ff96e1f2b6a682f133852f6798a09c465da95921460cefb38474024989060200160405180910390a15050565b6060603780546103749061154c565b610783610ede565b61048e8282611123565b335f81815260346020908152604080832073ffffffffffffffffffffffffffffffffffffffff8716845290915281205490919083811015610850576040517f08c379a000000000000000000000000000000000000000000000000000000000815260206004820152602560248201527f45524332303a2064656372656173656420616c6c6f77616e63652062656c6f7760448201527f207a65726f000000000000000000000000000000000000000000000000000000606482015260840161054a565b61042682868684036109e1565b5f33610402818585610c6a565b60c95460ff16156108fd576040517f08c379a000000000000000000000000000000000000000000000000000000000815260206004820152602160248201527f5a656e64546f6b656e3a20763220616c726561647920696e697469616c697a6560448201527f6400000000000000000000000000000000000000000000000000000000000000606482015260840161054a565b60c980547fffffffffffffffffffffffffffffffffffffffffffffffffffffffffffffff0016600117905561055c81611052565b610939610ede565b6097805473ffffffffffffffffffffffffffffffffffffffff83167fffffffffffffffffffffffff0000000000000000000000000000000000000000909116811790915561099c60655473ffffffffffffffffffffffffffffffffffffffff1690565b73ffffffffffffffffffffffffffffffffffffffff167f38d16b8cac22d99fc7c124b9cd0de2d3fa1faef420bfe791d8c362d765e2270060405160405180910390a350565b73ffffffffffffffffffffffffffffffffffffffff8316610a83576040517f08c379a0000000000000000000000000000000000000000000000000000000008152602060048201526024808201527f45524332303a20617070726f76652066726f6d20746865207a65726f2061646460448201527f7265737300000000000000000000000000000000000000000000000000000000606482015260840161054a565b73ffffffffffffffffffffffffffffffffffffffff8216610b26576040517f08c379a000000000000000000000000000000000000000000000000000000000815260206004820152602260248201527f45524332303a20617070726f766520746f20746865207a65726f20616464726560448201527f7373000000000000000000000000000000000000000000000000000000000000606482015260840161054a565b73ffffffffffffffffffffffffffffffffffffffff8381165f8181526034602090815260408083209487168084529482529182902085905590518481527f8c5be1e5ebec7d5bd14f71427d1e84f3dd0314c0f7b2291e5b200ac8c7c3b92591015b60405180910390a3505050565b73ffffffffffffffffffffffffffffffffffffffff8381165f908152603460209081526040808320938616835292905220547fffffffffffffffffffffffffffffffffffffffffffffffffffffffffffffffff8114610c645781811015610c57576040517f08c379a000000000000000000000000000000000000000000000000000000000815260206004820152601d60248201527f45524332303a20696e73756666696369656e7420616c6c6f77616e6365000000604482015260640161054a565b610c6484848484036109e1565b50505050565b73ffffffffffffffffffffffffffffffffffffffff8316610d0d576040517f08c379a000000000000000000000000000000000000000000000000000000000815260206004820152602560248201527f45524332303a207472616e736665722066726f6d20746865207a65726f20616460448201527f6472657373000000000000000000000000000000000000000000000000000000606482015260840161054a565b73ffffffffffffffffffffffffffffffffffffffff8216610db0576040517f08c379a000000000000000000000000000000000000000000000000000000000815260206004820152602360248201527f45524332303a207472616e7366657220746f20746865207a65726f206164647260448201527f6573730000000000000000000000000000000000000000000000000000000000606482015260840161054a565b73ffffffffffffffffffffffffffffffffffffffff83165f9081526033602052604090205481811015610e65576040517f08c379a000000000000000000000000000000000000000000000000000000000815260206004820152602660248201527f45524332303a207472616e7366657220616d6f756e742065786365656473206260448201527f616c616e63650000000000000000000000000000000000000000000000000000606482015260840161054a565b73ffffffffffffffffffffffffffffffffffffffff8085165f8181526033602052604080822086860390559286168082529083902080548601905591517fddf252ad1be2c89b69c2b068fc378daa952ba7f163c4a11628f55a4df523b3ef90610ed19086815260200190565b60405180910390a3610c64565b60655473ffffffffffffffffffffffffffffffffffffffff1633146104a3576040517f08c379a000000000000000000000000000000000000000000000000000000000815260206004820181905260248201527f4f776e61626c653a2063616c6c6572206973206e6f7420746865206f776e6572604482015260640161054a565b73ffffffffffffffffffffffffffffffffffffffff8216610fdc576040517f08c379a000000000000000000000000000000000000000000000000000000000815260206004820152601f60248201527f45524332303a206d696e7420746f20746865207a65726f206164647265737300604482015260640161054a565b8060355f828254610fed919061159d565b909155505073ffffffffffffffffffffffffffffffffffffffff82165f818152603360209081526040808320805486019055518481527fddf252ad1be2c89b69c2b068fc378daa952ba7f163c4a11628f55a4df523b3ef910160405180910390a35050565b609780547fffffffffffffffffffffffff000000000000000000000000000000000000000016905561055c816112e4565b5f54610100900460ff16611119576040517f08c379a000000000000000000000000000000000000000000000000000000000815260206004820152602b60248201527f496e697469616c697a61626c653a20636f6e7472616374206973206e6f74206960448201527f6e697469616c697a696e67000000000000000000000000000000000000000000606482015260840161054a565b61048e828261135a565b73ffffffffffffffffffffffffffffffffffffffff82166111c6576040517f08c379a000000000000000000000000000000000000000000000000000000000815260206004820152602160248201527f45524332303a206275726e2066726f6d20746865207a65726f2061646472657360448201527f7300000000000000000000000000000000000000000000000000000000000000606482015260840161054a565b73ffffffffffffffffffffffffffffffffffffffff82165f908152603360205260409020548181101561127b576040517f08c379a000000000000000000000000000000000000000000000000000000000815260206004820152602260248201527f45524332303a206275726e20616d6f756e7420657863656564732062616c616e60448201527f6365000000000000000000000000000000000000000000000000000000000000606482015260840161054a565b73ffffffffffffffffffffffffffffffffffffffff83165f8181526033602090815260408083208686039055603580548790039055518581529192917fddf252ad1be2c89b69c2b068fc378daa952ba7f163c4a11628f55a4df523b3ef9101610b87565b505050565b6065805473ffffffffffffffffffffffffffffffffffffffff8381167fffffffffffffffffffffffff0000000000000000000000000000000000000000831681179093556040519116919082907f8be0079c531659141344cd1fd0a4f28419497f9722a3daafe3b4186f6b6457e0905f90a35050565b5f54610100900460ff166113f0576040517f08c379a000000000000000000000000000000000000000000000000000000000815260206004820152602b60248201527f496e697469616c697a61626c653a20636f6e7472616374206973206e6f74206960448201527f6e697469616c697a696e67000000000000000000000000000000000000000000606482015260840161054a565b60366113fc838261164f565b5060376112df828261164f565b5f6020808352835180828501525f5b8181101561143457858101830151858201604001528201611418565b505f6040828601015260407fffffffffffffffffffffffffffffffffffffffffffffffffffffffffffffffe0601f8301168501019250505092915050565b803573ffffffffffffffffffffffffffffffffffffffff81168114611495575f80fd5b919050565b5f80604083850312156114ab575f80fd5b6114b483611472565b946020939093013593505050565b5f805f606084860312156114d4575f80fd5b6114dd84611472565b92506114eb60208501611472565b9150604084013590509250925092565b5f6020828403121561150b575f80fd5b61151482611472565b9392505050565b5f806040838503121561152c575f80fd5b61153583611472565b915061154360208401611472565b90509250929050565b600181811c9082168061156057607f821691505b602082108103611597577f4e487b71000000000000000000000000000000000000000000000000000000005f52602260045260245ffd5b50919050565b80820180821115610408577f4e487b71000000000000000000000000000000000000000000000000000000005f52601160045260245ffd5b7f4e487b71000000000000000000000000000000000000000000000000000000005f52604160045260245ffd5b601f8211156112df575f81815260208120601f850160051c810160208610156116285750805b601f850160051c820191505b8181101561164757828155600101611634565b505050505050565b815167ffffffffffffffff811115611669576116696115d5565b61167d81611677845461154c565b84611602565b602080601f8311600181146116cf575f84156116995750858301515b7fffffffffffffffffffffffffffffffffffffffffffffffffffffffffffffffff600386901b1c1916600185901b178555611647565b5f858152602081207fffffffffffffffffffffffffffffffffffffffffffffffffffffffffffffffe08616915b8281101561171b578886015182559484019460019091019084016116fc565b508582101561175757878501517fffffffffffffffffffffffffffffffffffffffffffffffffffffffffffffffff600388901b60f8161c191681555b5050505050600190811b0190555056fea2646970667358221220747b3e6c81630112cfdbd9bbc81b4abed3d0228ce28d3c140c21581afec4976664736f6c63430008150033","linkReferences":{}},"methodIdentifiers":{"__ZendToken_init(address)":"7a27cba4","__ZendToken_upgrade_v2(address)":"d46404cf","acceptOwnership()":"79ba5097","allowance(address,address)":"dd62ed3e","approve(address,uint256)":"095ea7b3","balanceOf(address)":"70a08231","burn(address,uint256)":"9dc29fac","decimals()":"313ce567","decreaseAllowance(address,uint256)":"a457c2d7","increaseAllowance(address,uint256)":"39509351","mint(address,uint256)":"40c10f19","name()":"06fdde03","owner()":"8da5cb5b","pendingOwner()":"e30c3978","renounceOwnership()":"715018a6","symbol()":"95d89b41","totalSupply()":"18160ddd","transfer(address,uint256)":"a9059cbb","transferFrom(address,address,uint256)":"23b872dd","transferOwnership(address)":"f2fde38b"},"id":2}