{
  "abi": [
    {
      "inputs": [
        {
          "internalType": "address",
          "name": "initialOwner",
          "type": "address"
        }
      ],
      "stateMutability": "nonpayable",
      "type": "constructor"
    },
    {
      "inputs": [
        {
          "internalType": "address",
          "name": "owner",
          "type": "address"
        }
      ],
      "name": "OwnableInvalidOwner",
      "type": "error"
    },
    {
      "inputs": [
        {
          "internalType": "address",
          "name": "account",
          "type": "address"
        }
      ],
      "name": "OwnableUnauthorizedAccount",
      "type": "error"
    },
    {
      "anonymous": false,
      "inputs": [
        {
          "indexed": true,
          "internalType": "address",
          "name": "previousOwner",
          "type": "address"
        },
        {
          "indexed": true,
          "internalType": "address",
          "name": "newOwner",
          "type": "address"
        }
      ],
      "name": "OwnershipTransferred",
      "type": "event"
    },
    {
      "inputs": [],
      "name": "UPGRADE_INTERFACE_VERSION",
      "outputs": [
        {
          "internalType": "string",
          "name": "",
          "type": "string"
        }
      ],
      "stateMutability": "view",
      "type": "function"
    },
    {
      "inputs": [],
      "name": "owner",
      "outputs": [
        {
          "internalType": "address",
          "name": "",
          "type": "address"
        }
      ],
      "stateMutability": "view",
      "type": "function"
    },
    {
      "inputs": [],
      "name": "renounceOwnership",
      "outputs": [],
      "stateMutability": "nonpayable",
      "type": "function"
    },
    {
      "inputs": [
        {
          "internalType": "address",
          "name": "newOwner",
          "type": "address"
        }
      ],
      "name": "transferOwnership",
      "outputs": [],
      "stateMutability": "nonpayable",
      "type": "function"
    },
    {
      "inputs": [
        {
          "internalType": "contract ITransparentUpgradeableProxy",
          "name": "proxy",
          "type": "address"
        },
        {
          "internalType": "address",
          "name": "implementation",
          "type": "address"
        },
        {
          "internalType": "bytes",
          "name": "data",
          "type": "bytes"
        }
      ],
      "name": "upgradeAndCall",
      "outputs": [],
      "stateMutability": "payable",
      "type": "function"
    }
  ],
  "bytecode": {
    "object": "0x608060405234801561001057600080fd5b5060405161065d38038061065d83398101604081905261002f916100be565b806001600160a01b03811661005e57604051631e4fbdf760e01b81526000600482015260240160405180910390fd5b6100678161006e565b50506100ee565b600080546001600160a01b038381166001600160a01b0319831681178455604051919092169283917f8be0079c531659141344cd1fd0a4f28419497f9722a3daafe3b4186f6b6457e09190a35050565b6000602082840312156100d057600080fd5b81516001600160a01b03811681146100e757600080fd5b9392505050565b610560806100fd6000396000f3fe60806040526004361061005a5760003560e01c80639623609d116100435780639623609d146100b0578063ad3cb1cc146100c3578063f2fde38b1461011957600080fd5b8063715018a61461005f5780638da5cb5b14610076575b600080fd5b34801561006b57600080fd5b50610074610139565b005b34801561008257600080fd5b5060005460405173ffffffffffffffffffffffffffffffffffffffff90911681526020015b60405180910390f35b6100746100be366004610364565b61014d565b3480156100cf57600080fd5b5061010c6040518060400160405280600581526020017f352e302e3000000000000000000000000000000000000000000000000000000081525081565b6040516100a791906104bc565b34801561012557600080fd5b506100746101343660046104d6565b6101e2565b61014161024b565b61014b600061029e565b565b61015561024b565b6040517f4f1ef28600000000000000000000000000000000000000000000000000000000815273ffffffffffffffffffffffffffffffffffffffff841690634f1ef2869034906101ab90869086906004016104f3565b6000604051808303818588803b1580156101c457600080fd5b505af11580156101d8573d6000803e3d6000fd5b5050505050505050565b6101ea61024b565b73ffffffffffffffffffffffffffffffffffffffff811661023f576040517f1e4fbdf7000000000000000000000000000000000000000000000000000000008152600060048201526024015b60405180910390fd5b6102488161029e565b50565b60005473ffffffffffffffffffffffffffffffffffffffff16331461014b576040517f118cdaa7000000000000000000000000000000000000000000000000000000008152336004820152602401610236565b6000805473ffffffffffffffffffffffffffffffffffffffff8381167fffffffffffffffffffffffff0000000000000000000000000000000000000000831681178455604051919092169283917f8be0079c531659141344cd1fd0a4f28419497f9722a3daafe3b4186f6b6457e09190a35050565b73ffffffffffffffffffffffffffffffffffffffff8116811461024857600080fd5b7f4e487b7100000000000000000000000000000000000000000000000000000000600052604160045260246000fd5b60008060006060848603121561037957600080fd5b833561038481610313565b9250602084013561039481610313565b9150604084013567ffffffffffffffff808211156103b157600080fd5b818601915086601f8301126103c557600080fd5b8135818111156103d7576103d7610335565b604051601f82017fffffffffffffffffffffffffffffffffffffffffffffffffffffffffffffffe0908116603f0116810190838211818310171561041d5761041d610335565b8160405282815289602084870101111561043657600080fd5b8260208601602083013760006020848301015280955050505050509250925092565b6000815180845260005b8181101561047e57602081850181015186830182015201610462565b5060006020828601015260207fffffffffffffffffffffffffffffffffffffffffffffffffffffffffffffffe0601f83011685010191505092915050565b6020815260006104cf6020830184610458565b9392505050565b6000602082840312156104e857600080fd5b81356104cf81610313565b73ffffffffffffffffffffffffffffffffffffffff831681526040602082015260006105226040830184610458565b94935050505056fea264697066735822122058f70c51cd7312d9e37386691be4d7ba7708d6362721411715537904859759a364736f6c63430008150033",
    "linkReferences": {}
  },
  "methodIdentifiers": {
    "UPGRADE_INTERFACE_VERSION()": "ad3cb1cc",
    "owner()": "8da5cb5b",
    "renounceOwnership()": "715018a6",
    "transferOwnership(address)": "f2fde38b",
    "upgradeAndCall(address,address,bytes)": "9623609d"
  },
  "id": 15
}