{
  "abi": [
    {
      "anonymous": false,
      "inputs": [
        {
          "indexed": false,
          "internalType": "uint8",
          "name": "version",
          "type": "uint8"
        }
      ],
      "name": "Initialized",
      "type": "event"
    },
    {
      "anonymous": false,
      "inputs": [
        {
          "indexed": true,
          "internalType": "address",
          "name": "previousOwner",
          "type": "address"
        },
        {
          "indexed": true,
          "internalType": "address",
          "name": "newOwner",
          "type": "address"
        }
      ],
      "name": "OwnershipTransferred",
      "type": "event"
    },
    {
      "anonymous": false,
      "inputs": [
        {
          "indexed": true,
          "internalType": "address",
          "name": "user",
          "type": "address"
        },
        {
          "indexed": false,
          "internalType": "uint256",
          "name": "amount",
          "type": "uint256"
        }
      ],
      "name": "TokenVested",
      "type": "event"
    },
    {
      "anonymous": false,
      "inputs": [
        {
          "indexed": true,
          "internalType": "address",
          "name": "user",
          "type": "address"
        },
        {
          "indexed": false,
          "internalType": "uint256",
          "name": "amount",
          "type": "uint256"
        },
        {
          "indexed": false,
          "internalType": "uint256",
          "name": "startTime",
          "type": "uint256"
        },
        {
          "indexed": false,
          "internalType": "uint256",
          "name": "endTime",
          "type": "uint256"
        },
        {
          "indexed": false,
          "internalType": "uint256",
          "name": "step",
          "type": "uint256"
        }
      ],
      "name": "VestingScheduleAdded",
      "type": "event"
    },
    {
      "anonymous": false,
      "inputs": [
        {
          "indexed": true,
          "internalType": "address",
          "name": "user",
          "type": "address"
        }
      ],
      "name": "VestingScheduleRemoved",
      "type": "event"
    },
    {
      "inputs": [
        {
          "internalType": "contract IERC20Upgradeable",
          "name": "_token",
          "type": "address"
        }
      ],
      "name": "__TokenEscrow_init",
      "outputs": [],
      "stateMutability": "nonpayable",
      "type": "function"
    },
    {
      "inputs": [
        {
          "internalType": "address",
          "name": "user",
          "type": "address"
        }
      ],
      "name": "getWithdrawableAmount",
      "outputs": [
        {
          "internalType": "uint256",
          "name": "",
          "type": "uint256"
        }
      ],
      "stateMutability": "view",
      "type": "function"
    },
    {
      "inputs": [],
      "name": "owner",
      "outputs": [
        {
          "internalType": "address",
          "name": "",
          "type": "address"
        }
      ],
      "stateMutability": "view",
      "type": "function"
    },
    {
      "inputs": [
        {
          "internalType": "address",
          "name": "user",
          "type": "address"
        }
      ],
      "name": "removeVestingSchedule",
      "outputs": [],
      "stateMutability": "nonpayable",
      "type": "function"
    },
    {
      "inputs": [],
      "name": "renounceOwnership",
      "outputs": [],
      "stateMutability": "nonpayable",
      "type": "function"
    },
    {
      "inputs": [
        {
          "internalType": "address",
          "name": "user",
          "type": "address"
        },
        {
          "internalType": "uint256",
          "name": "amount",
          "type": "uint256"
        },
        {
          "internalType": "uint256",
          "name": "startTime",
          "type": "uint256"
        },
        {
          "internalType": "uint256",
          "name": "endTime",
          "type": "uint256"
        },
        {
          "internalType": "uint256",
          "name": "step",
          "type": "uint256"
        }
      ],
      "name": "setVestingSchedule",
      "outputs": [],
      "stateMutability": "nonpayable",
      "type": "function"
    },
    {
      "inputs": [],
      "name": "token",
      "outputs": [
        {
          "internalType": "contract IERC20Upgradeable",
          "name": "",
          "type": "address"
        }
      ],
      "stateMutability": "view",
      "type": "function"
    },
    {
      "inputs": [
        {
          "internalType": "address",
          "name": "newOwner",
          "type": "address"
        }
      ],
      "name": "transferOwnership",
      "outputs": [],
      "stateMutability": "nonpayable",
      "type": "function"
    },
    {
      "inputs": [
        {
          "internalType": "address",
          "name": "",
          "type": "address"
        }
      ],
      "name": "vestingSchedules",
      "outputs": [
        {
          "internalType": "uint128",
          "name": "amount",
          "type": "uint128"
        },
        {
          "internalType": "uint32",
          "name": "startTime",
          "type": "uint32"
        },
        {
          "internalType": "uint32",
          "name": "endTime",
          "type": "uint32"
        },
        {
          "internalType": "uint32",
          "name": "step",
          "type": "uint32"
        },
        {
          "internalType": "uint32",
          "name": "lastClaimTime",
          "type": "uint32"
        }
      ],
      "stateMutability": "view",
      "type": "function"
    },
    {
      "inputs": [],
      "name": "withdraw",
      "outputs": [],
      "stateMutability": "nonpayable",
      "type": "function"
    }
  ],
  "bytecode": {
    "object": "0x608060405234801561001057600080fd5b50611641806100206000396000f3fe608060405234801561001057600080fd5b50600436106100be5760003560e01c806396c6bd6211610076578063f67771751161005b578063f677717514610165578063fc0c546a14610186578063fdb20ccb146101a657600080fd5b806396c6bd621461013f578063f2fde38b1461015257600080fd5b80633ccfd60b116100a75780633ccfd60b146100eb578063715018a6146100f35780638da5cb5b146100fb57600080fd5b80631dcf0b30146100c3578063322121c5146100d8575b600080fd5b6100d66100d13660046114be565b610297565b005b6100d66100e63660046114be565b6104ec565b6100d661060b565b6100d66107e1565b60335473ffffffffffffffffffffffffffffffffffffffff165b60405173ffffffffffffffffffffffffffffffffffffffff90911681526020015b60405180910390f35b6100d661014d3660046114e2565b6107f5565b6100d66101603660046114be565b610e48565b6101786101733660046114be565b610eff565b604051908152602001610136565b6065546101159073ffffffffffffffffffffffffffffffffffffffff1681565b6102516101b43660046114be565b6066602052600090815260409020546fffffffffffffffffffffffffffffffff81169063ffffffff7001000000000000000000000000000000008204811691740100000000000000000000000000000000000000008104821691780100000000000000000000000000000000000000000000000082048116917c010000000000000000000000000000000000000000000000000000000090041685565b604080516fffffffffffffffffffffffffffffffff909616865263ffffffff9485166020870152928416928501929092528216606084015216608082015260a001610136565b600054610100900460ff16158080156102b75750600054600160ff909116105b806102d15750303b1580156102d1575060005460ff166001145b610362576040517f08c379a000000000000000000000000000000000000000000000000000000000815260206004820152602e60248201527f496e697469616c697a61626c653a20636f6e747261637420697320616c72656160448201527f647920696e697469616c697a656400000000000000000000000000000000000060648201526084015b60405180910390fd5b600080547fffffffffffffffffffffffffffffffffffffffffffffffffffffffffffffff0016600117905580156103c057600080547fffffffffffffffffffffffffffffffffffffffffffffffffffffffffffff00ff166101001790555b6103c8610f15565b73ffffffffffffffffffffffffffffffffffffffff8216610445576040517f08c379a000000000000000000000000000000000000000000000000000000000815260206004820152601960248201527f546f6b656e457363726f773a207a65726f2061646472657373000000000000006044820152606401610359565b606580547fffffffffffffffffffffffff00000000000000000000000000000000000000001673ffffffffffffffffffffffffffffffffffffffff841617905580156104e857600080547fffffffffffffffffffffffffffffffffffffffffffffffffffffffffffff00ff169055604051600181527f7f26b83ff96e1f2b6a682f133852f6798a09c465da95921460cefb38474024989060200160405180910390a15b5050565b6104f4610fb4565b73ffffffffffffffffffffffffffffffffffffffff81166000908152606660205260408120546fffffffffffffffffffffffffffffffff1690036105ba576040517f08c379a000000000000000000000000000000000000000000000000000000000815260206004820152602560248201527f546f6b656e457363726f773a2076657374696e67207363686564756c65206e6f60448201527f74207365740000000000000000000000000000000000000000000000000000006064820152608401610359565b73ffffffffffffffffffffffffffffffffffffffff8116600081815260666020526040808220829055517fa2063a7b6a820b839305022b1b2727065955d94dff81c1960319d17340492ae29190a250565b600080600061061933611035565b91945092509050821561069a578015610641573360009081526066602052604081205561069a565b33600090815260666020526040902080547bffffffffffffffffffffffffffffffffffffffffffffffffffffffff167c010000000000000000000000000000000000000000000000000000000063ffffffff8516021790555b5081905080610705576040517f08c379a000000000000000000000000000000000000000000000000000000000815260206004820181905260248201527f546f6b656e457363726f773a206e6f7468696e6720746f2077697468647261776044820152606401610359565b81156107415760405182815233907f7e04575a9d5f6038ea6ee0bb1a2cfe0ae38555fddafec1dec4d69b504b72ba189060200160405180910390a25b6065546040517fa9059cbb0000000000000000000000000000000000000000000000000000000081523360048201526024810183905273ffffffffffffffffffffffffffffffffffffffff9091169063a9059cbb906044016020604051808303816000875af11580156107b8573d6000803e3d6000fd5b505050506040513d601f19601f820116820180604052508101906107dc9190611526565b505050565b6107e9610fb4565b6107f36000611336565b565b6107fd610fb4565b73ffffffffffffffffffffffffffffffffffffffff851661087a576040517f08c379a000000000000000000000000000000000000000000000000000000000815260206004820152601960248201527f546f6b656e457363726f773a207a65726f2061646472657373000000000000006044820152606401610359565b600084116108e4576040517f08c379a000000000000000000000000000000000000000000000000000000000815260206004820152601860248201527f546f6b656e457363726f773a207a65726f20616d6f756e7400000000000000006044820152606401610359565b81831061094d576040517f08c379a000000000000000000000000000000000000000000000000000000000815260206004820152601f60248201527f546f6b656e457363726f773a20696e76616c69642074696d652072616e6765006044820152606401610359565b60008111801561096f57508061096383856113ad565b61096d9190611577565b155b6109d5576040517f08c379a000000000000000000000000000000000000000000000000000000000815260206004820152601960248201527f546f6b656e457363726f773a20696e76616c69642073746570000000000000006044820152606401610359565b73ffffffffffffffffffffffffffffffffffffffff85166000908152606660205260409020546fffffffffffffffffffffffffffffffff1615610a9a576040517f08c379a000000000000000000000000000000000000000000000000000000000815260206004820152602c60248201527f546f6b656e457363726f773a2076657374696e67207363686564756c6520616c60448201527f72656164792065786973747300000000000000000000000000000000000000006064820152608401610359565b83846fffffffffffffffffffffffffffffffff1614610b15576040517f08c379a000000000000000000000000000000000000000000000000000000000815260206004820152601c60248201527f546f6b656e457363726f773a20616d6f756e74206f766572666c6f77000000006044820152606401610359565b828363ffffffff1614610b84576040517f08c379a000000000000000000000000000000000000000000000000000000000815260206004820152601f60248201527f546f6b656e457363726f773a20737461727454696d65206f766572666c6f77006044820152606401610359565b818263ffffffff1614610bf3576040517f08c379a000000000000000000000000000000000000000000000000000000000815260206004820152601d60248201527f546f6b656e457363726f773a20656e6454696d65206f766572666c6f770000006044820152606401610359565b808163ffffffff1614610c62576040517f08c379a000000000000000000000000000000000000000000000000000000000815260206004820152601a60248201527f546f6b656e457363726f773a2073746570206f766572666c6f770000000000006044820152606401610359565b6040805160a0810182526fffffffffffffffffffffffffffffffff808716825263ffffffff8087166020808501828152888416868801908152888516606088019081526080880194855273ffffffffffffffffffffffffffffffffffffffff8e16600081815260669095529389902097518854935192519151955187167c0100000000000000000000000000000000000000000000000000000000027bffffffffffffffffffffffffffffffffffffffffffffffffffffffff9688167801000000000000000000000000000000000000000000000000027fffffffff00000000ffffffffffffffffffffffffffffffffffffffffffffffff9389167401000000000000000000000000000000000000000002939093167fffffffff0000000000000000ffffffffffffffffffffffffffffffffffffffff94909816700100000000000000000000000000000000027fffffffffffffffffffffffff0000000000000000000000000000000000000000909516919098161792909217169390931792909217169190911790915590517fb4c37d22ce880964bc31fcdc6dca8795b511cdccbf363ca5f2f7855a9e4356b690610e3990879087908790879093845260208401929092526040830152606082015260800190565b60405180910390a25050505050565b610e50610fb4565b73ffffffffffffffffffffffffffffffffffffffff8116610ef3576040517f08c379a000000000000000000000000000000000000000000000000000000000815260206004820152602660248201527f4f776e61626c653a206e6577206f776e657220697320746865207a65726f206160448201527f64647265737300000000000000000000000000000000000000000000000000006064820152608401610359565b610efc81611336565b50565b600080610f0b83611035565b5090949350505050565b600054610100900460ff16610fac576040517f08c379a000000000000000000000000000000000000000000000000000000000815260206004820152602b60248201527f496e697469616c697a61626c653a20636f6e7472616374206973206e6f74206960448201527f6e697469616c697a696e670000000000000000000000000000000000000000006064820152608401610359565b6107f36113c2565b60335473ffffffffffffffffffffffffffffffffffffffff1633146107f3576040517f08c379a000000000000000000000000000000000000000000000000000000000815260206004820181905260248201527f4f776e61626c653a2063616c6c6572206973206e6f7420746865206f776e65726044820152606401610359565b73ffffffffffffffffffffffffffffffffffffffff81166000908152606660209081526040808320815160a08101835290546fffffffffffffffffffffffffffffffff811680835263ffffffff700100000000000000000000000000000000830481169584019590955274010000000000000000000000000000000000000000820485169383019390935278010000000000000000000000000000000000000000000000008104841660608301527c0100000000000000000000000000000000000000000000000000000000900490921660808301528291829182036111265760008060009350935093505061132f565b806020015163ffffffff164210156111495760008060009350935093505061132f565b60006111b76111a7836020015163ffffffff166111a1856060015163ffffffff1661119b876060015163ffffffff16611195896020015163ffffffff16426113ad90919063ffffffff16565b90611462565b9061146e565b9061147a565b836040015163ffffffff16611486565b9050816080015163ffffffff1681116111dc576000806000945094509450505061132f565b6000611213836060015163ffffffff16611195856020015163ffffffff16866040015163ffffffff166113ad90919063ffffffff16565b9050826040015163ffffffff1682036112be57600061125d846060015163ffffffff16611195866020015163ffffffff16876080015163ffffffff166113ad90919063ffffffff16565b905060006112ab6112918361119b8689600001516fffffffffffffffffffffffffffffffff1661146290919063ffffffff16565b86516fffffffffffffffffffffffffffffffff16906113ad565b97509295506001945061132f9350505050565b60006112eb846060015163ffffffff16611195866080015163ffffffff16866113ad90919063ffffffff16565b9050600061131c8261119b8588600001516fffffffffffffffffffffffffffffffff1661146290919063ffffffff16565b97509295506000945061132f9350505050565b9193909250565b6033805473ffffffffffffffffffffffffffffffffffffffff8381167fffffffffffffffffffffffff0000000000000000000000000000000000000000831681179093556040519116919082907f8be0079c531659141344cd1fd0a4f28419497f9722a3daafe3b4186f6b6457e090600090a35050565b60006113b982846115ba565b90505b92915050565b600054610100900460ff16611459576040517f08c379a000000000000000000000000000000000000000000000000000000000815260206004820152602b60248201527f496e697469616c697a61626c653a20636f6e7472616374206973206e6f74206960448201527f6e697469616c697a696e670000000000000000000000000000000000000000006064820152608401610359565b6107f333611336565b60006113b982846115cd565b60006113b982846115e1565b60006113b982846115f8565b600081831061149557816113b9565b5090919050565b73ffffffffffffffffffffffffffffffffffffffff81168114610efc57600080fd5b6000602082840312156114d057600080fd5b81356114db8161149c565b9392505050565b600080600080600060a086880312156114fa57600080fd5b85356115058161149c565b97602087013597506040870135966060810135965060800135945092505050565b60006020828403121561153857600080fd5b815180151581146114db57600080fd5b7f4e487b7100000000000000000000000000000000000000000000000000000000600052601260045260246000fd5b60008261158657611586611548565b500690565b7f4e487b7100000000000000000000000000000000000000000000000000000000600052601160045260246000fd5b818103818111156113bc576113bc61158b565b6000826115dc576115dc611548565b500490565b80820281158282048414176113bc576113bc61158b565b808201808211156113bc576113bc61158b56fea26469706673582212204d3ea2f20739f3d530b9bf2569c5a9a6ae0ad5d7b037da5cf7e42cc241e13ff364736f6c63430008150033",
    "linkReferences": {}
  },
  "methodIdentifiers": {
    "__TokenEscrow_init(address)": "1dcf0b30",
    "getWithdrawableAmount(address)": "f6777175",
    "owner()": "8da5cb5b",
    "removeVestingSchedule(address)": "322121c5",
    "renounceOwnership()": "715018a6",
    "setVestingSchedule(address,uint256,uint256,uint256,uint256)": "96c6bd62",
    "token()": "fc0c546a",
    "transferOwnership(address)": "f2fde38b",
    "vestingSchedules(address)": "fdb20ccb",
    "withdraw()": "3ccfd60b"
  },
  "id": 21
}