{
  "abi": [
    {
      "anonymous": false,
      "inputs": [
        {
          "indexed": false,
          "internalType": "uint8",
          "name": "version",
          "type": "uint8"
        }
      ],
      "name": "Initialized",
      "type": "event"
    },
    {
      "anonymous": false,
      "inputs": [
        {
          "indexed": true,
          "internalType": "address",
          "name": "previousOwner",
          "type": "address"
        },
        {
          "indexed": true,
          "internalType": "address",
          "name": "newOwner",
          "type": "address"
        }
      ],
      "name": "OwnershipTransferred",
      "type": "event"
    },
    {
      "anonymous": false,
      "inputs": [
        {
          "indexed": true,
          "internalType": "address",
          "name": "user",
          "type": "address"
        },
        {
          "indexed": false,
          "internalType": "uint256",
          "name": "amount",
          "type": "uint256"
        }
      ],
      "name": "TokenVested",
      "type": "event"
    },
    {
      "anonymous": false,
      "inputs": [
        {
          "indexed": true,
          "internalType": "address",
          "name": "user",
          "type": "address"
        },
        {
          "indexed": false,
          "internalType": "uint256",
          "name": "startAmount",
          "type": "uint256"
        },
        {
          "indexed": false,
          "internalType": "uint256",
          "name": "vestingAmount",
          "type": "uint256"
        },
        {
          "indexed": false,
          "internalType": "uint256",
          "name": "startTime",
          "type": "uint256"
        },
        {
          "indexed": false,
          "internalType": "uint256",
          "name": "endTime",
          "type": "uint256"
        },
        {
          "indexed": false,
          "internalType": "uint256",
          "name": "cliffTime",
          "type": "uint256"
        },
        {
          "indexed": false,
          "internalType": "uint256",
          "name": "step",
          "type": "uint256"
        }
      ],
      "name": "VestingScheduleAdded",
      "type": "event"
    },
    {
      "anonymous": false,
      "inputs": [
        {
          "indexed": true,
          "internalType": "address",
          "name": "user",
          "type": "address"
        }
      ],
      "name": "VestingScheduleRemoved",
      "type": "event"
    },
    {
      "inputs": [
        {
          "internalType": "contract IERC20Upgradeable",
          "name": "_token",
          "type": "address"
        }
      ],
      "name": "__TokenEscrow_init",
      "outputs": [],
      "stateMutability": "nonpayable",
      "type": "function"
    },
    {
      "inputs": [
        {
          "internalType": "address",
          "name": "user",
          "type": "address"
        }
      ],
      "name": "getWithdrawableAmount",
      "outputs": [
        {
          "internalType": "uint256",
          "name": "",
          "type": "uint256"
        }
      ],
      "stateMutability": "view",
      "type": "function"
    },
    {
      "inputs": [],
      "name": "owner",
      "outputs": [
        {
          "internalType": "address",
          "name": "",
          "type": "address"
        }
      ],
      "stateMutability": "view",
      "type": "function"
    },
    {
      "inputs": [
        {
          "internalType": "address",
          "name": "user",
          "type": "address"
        }
      ],
      "name": "removeVestingSchedule",
      "outputs": [],
      "stateMutability": "nonpayable",
      "type": "function"
    },
    {
      "inputs": [],
      "name": "renounceOwnership",
      "outputs": [],
      "stateMutability": "nonpayable",
      "type": "function"
    },
    {
      "inputs": [
        {
          "internalType": "address",
          "name": "user",
          "type": "address"
        },
        {
          "internalType": "uint256",
          "name": "startAmount",
          "type": "uint256"
        },
        {
          "internalType": "uint256",
          "name": "vestingAmount",
          "type": "uint256"
        },
        {
          "internalType": "uint256",
          "name": "startTime",
          "type": "uint256"
        },
        {
          "internalType": "uint256",
          "name": "endTime",
          "type": "uint256"
        },
        {
          "internalType": "uint256",
          "name": "cliffTime",
          "type": "uint256"
        },
        {
          "internalType": "uint256",
          "name": "step",
          "type": "uint256"
        }
      ],
      "name": "setVestingSchedule",
      "outputs": [],
      "stateMutability": "nonpayable",
      "type": "function"
    },
    {
      "inputs": [],
      "name": "token",
      "outputs": [
        {
          "internalType": "contract IERC20Upgradeable",
          "name": "",
          "type": "address"
        }
      ],
      "stateMutability": "view",
      "type": "function"
    },
    {
      "inputs": [
        {
          "internalType": "address",
          "name": "newOwner",
          "type": "address"
        }
      ],
      "name": "transferOwnership",
      "outputs": [],
      "stateMutability": "nonpayable",
      "type": "function"
    },
    {
      "inputs": [
        {
          "internalType": "address",
          "name": "",
          "type": "address"
        }
      ],
      "name": "vestingSchedules",
      "outputs": [
        {
          "internalType": "uint128",
          "name": "startAmount",
          "type": "uint128"
        },
        {
          "internalType": "uint128",
          "name": "vestingAmount",
          "type": "uint128"
        },
        {
          "internalType": "uint32",
          "name": "startTime",
          "type": "uint32"
        },
        {
          "internalType": "uint32",
          "name": "endTime",
          "type": "uint32"
        },
        {
          "internalType": "uint32",
          "name": "cliffTime",
          "type": "uint32"
        },
        {
          "internalType": "uint32",
          "name": "step",
          "type": "uint32"
        },
        {
          "internalType": "uint32",
          "name": "lastClaimTime",
          "type": "uint32"
        }
      ],
      "stateMutability": "view",
      "type": "function"
    },
    {
      "inputs": [],
      "name": "withdraw",
      "outputs": [],
      "stateMutability": "nonpayable",
      "type": "function"
    }
  ],
  "bytecode": {
    "object": "0x608060405234801561001057600080fd5b50611a6b806100206000396000f3fe608060405234801561001057600080fd5b50600436106100be5760003560e01c8063ea8582c411610076578063f67771751161005b578063f677717514610165578063fc0c546a14610186578063fdb20ccb146101a657600080fd5b8063ea8582c41461013f578063f2fde38b1461015257600080fd5b80633ccfd60b116100a75780633ccfd60b146100eb578063715018a6146100f35780638da5cb5b146100fb57600080fd5b80631dcf0b30146100c3578063322121c5146100d8575b600080fd5b6100d66100d13660046118d7565b61028c565b005b6100d66100e63660046118d7565b6104e1565b6100d661067e565b6100d661087a565b60335473ffffffffffffffffffffffffffffffffffffffff165b60405173ffffffffffffffffffffffffffffffffffffffff90911681526020015b60405180910390f35b6100d661014d3660046118fb565b61088e565b6100d66101603660046118d7565b6111a2565b6101786101733660046118d7565b611259565b604051908152602001610136565b6065546101159073ffffffffffffffffffffffffffffffffffffffff1681565b6102366101b43660046118d7565b606660205260009081526040902080546001909101546fffffffffffffffffffffffffffffffff80831692700100000000000000000000000000000000908190049091169163ffffffff8082169264010000000083048216926801000000000000000081048316926c0100000000000000000000000082048116929091041687565b604080516fffffffffffffffffffffffffffffffff988916815297909616602088015263ffffffff94851695870195909552918316606086015282166080850152811660a08401521660c082015260e001610136565b600054610100900460ff16158080156102ac5750600054600160ff909116105b806102c65750303b1580156102c6575060005460ff166001145b610357576040517f08c379a000000000000000000000000000000000000000000000000000000000815260206004820152602e60248201527f496e697469616c697a61626c653a20636f6e747261637420697320616c72656160448201527f647920696e697469616c697a656400000000000000000000000000000000000060648201526084015b60405180910390fd5b600080547fffffffffffffffffffffffffffffffffffffffffffffffffffffffffffffff0016600117905580156103b557600080547fffffffffffffffffffffffffffffffffffffffffffffffffffffffffffff00ff166101001790555b6103bd61126f565b73ffffffffffffffffffffffffffffffffffffffff821661043a576040517f08c379a000000000000000000000000000000000000000000000000000000000815260206004820152601960248201527f546f6b656e457363726f773a207a65726f206164647265737300000000000000604482015260640161034e565b606580547fffffffffffffffffffffffff00000000000000000000000000000000000000001673ffffffffffffffffffffffffffffffffffffffff841617905580156104dd57600080547fffffffffffffffffffffffffffffffffffffffffffffffffffffffffffff00ff169055604051600181527f7f26b83ff96e1f2b6a682f133852f6798a09c465da95921460cefb38474024989060200160405180910390a15b5050565b6104e961130e565b73ffffffffffffffffffffffffffffffffffffffff81166000908152606660205260409020546fffffffffffffffffffffffffffffffff16151580610578575073ffffffffffffffffffffffffffffffffffffffff811660009081526066602052604090205470010000000000000000000000000000000090046fffffffffffffffffffffffffffffffff1615155b610604576040517f08c379a000000000000000000000000000000000000000000000000000000000815260206004820152602560248201527f546f6b656e457363726f773a2076657374696e67207363686564756c65206e6f60448201527f7420736574000000000000000000000000000000000000000000000000000000606482015260840161034e565b73ffffffffffffffffffffffffffffffffffffffff811660008181526066602052604080822082815560010180547fffffffffffffffffffffffff0000000000000000000000000000000000000000169055517fa2063a7b6a820b839305022b1b2727065955d94dff81c1960319d17340492ae29190a250565b600080600061068c3361138f565b9194509250905082156107335780156106df5733600090815260666020526040812090815560010180547fffffffffffffffffffffffff0000000000000000000000000000000000000000169055610733565b33600090815260666020526040902060010180547fffffffffffffffffffffffff00000000ffffffffffffffffffffffffffffffff1670010000000000000000000000000000000063ffffffff8516021790555b508190508061079e576040517f08c379a000000000000000000000000000000000000000000000000000000000815260206004820181905260248201527f546f6b656e457363726f773a206e6f7468696e6720746f207769746864726177604482015260640161034e565b81156107da5760405182815233907f7e04575a9d5f6038ea6ee0bb1a2cfe0ae38555fddafec1dec4d69b504b72ba189060200160405180910390a25b6065546040517fa9059cbb0000000000000000000000000000000000000000000000000000000081523360048201526024810183905273ffffffffffffffffffffffffffffffffffffffff9091169063a9059cbb906044016020604051808303816000875af1158015610851573d6000803e3d6000fd5b505050506040513d601f19601f820116820180604052508101906108759190611950565b505050565b61088261130e565b61088c6000611740565b565b61089661130e565b73ffffffffffffffffffffffffffffffffffffffff8716610913576040517f08c379a000000000000000000000000000000000000000000000000000000000815260206004820152601960248201527f546f6b656e457363726f773a207a65726f206164647265737300000000000000604482015260640161034e565b60008611806109225750600085115b610988576040517f08c379a000000000000000000000000000000000000000000000000000000000815260206004820152601860248201527f546f6b656e457363726f773a207a65726f20616d6f756e740000000000000000604482015260640161034e565b8284106109f1576040517f08c379a000000000000000000000000000000000000000000000000000000000815260206004820152601f60248201527f546f6b656e457363726f773a20696e76616c69642074696d652072616e676500604482015260640161034e565b600081118015610a13575080610a0784866117b7565b610a1191906119a1565b155b610a79576040517f08c379a000000000000000000000000000000000000000000000000000000000815260206004820152601960248201527f546f6b656e457363726f773a20696e76616c6964207374657000000000000000604482015260640161034e565b838210158015610a895750828211155b8015610aa7575080610a9b85846119e4565b610aa591906119a1565b155b610b0d576040517f08c379a000000000000000000000000000000000000000000000000000000000815260206004820152601f60248201527f546f6b656e457363726f773a20696e76616c696420636c6966662074696d6500604482015260640161034e565b73ffffffffffffffffffffffffffffffffffffffff87166000908152606660205260409020546fffffffffffffffffffffffffffffffff16158015610b9b575073ffffffffffffffffffffffffffffffffffffffff871660009081526066602052604090205470010000000000000000000000000000000090046fffffffffffffffffffffffffffffffff16155b610c27576040517f08c379a000000000000000000000000000000000000000000000000000000000815260206004820152602c60248201527f546f6b656e457363726f773a2076657374696e67207363686564756c6520616c60448201527f7265616479206578697374730000000000000000000000000000000000000000606482015260840161034e565b85866fffffffffffffffffffffffffffffffff1614610cc8576040517f08c379a000000000000000000000000000000000000000000000000000000000815260206004820152602160248201527f546f6b656e457363726f773a207374617274416d6f756e74206f766572666c6f60448201527f7700000000000000000000000000000000000000000000000000000000000000606482015260840161034e565b84856fffffffffffffffffffffffffffffffff1614610d69576040517f08c379a000000000000000000000000000000000000000000000000000000000815260206004820152602360248201527f546f6b656e457363726f773a2076657374696e67416d6f756e74206f7665726660448201527f6c6f770000000000000000000000000000000000000000000000000000000000606482015260840161034e565b838463ffffffff1614610dd8576040517f08c379a000000000000000000000000000000000000000000000000000000000815260206004820152601f60248201527f546f6b656e457363726f773a20737461727454696d65206f766572666c6f7700604482015260640161034e565b828363ffffffff1614610e47576040517f08c379a000000000000000000000000000000000000000000000000000000000815260206004820152601d60248201527f546f6b656e457363726f773a20656e6454696d65206f766572666c6f77000000604482015260640161034e565b818263ffffffff1614610eb6576040517f08c379a000000000000000000000000000000000000000000000000000000000815260206004820152601f60248201527f546f6b656e457363726f773a20636c69666654696d65206f766572666c6f7700604482015260640161034e565b808163ffffffff1614610f25576040517f08c379a000000000000000000000000000000000000000000000000000000000815260206004820152601a60248201527f546f6b656e457363726f773a2073746570206f766572666c6f77000000000000604482015260640161034e565b6040518060e00160405280876fffffffffffffffffffffffffffffffff168152602001866fffffffffffffffffffffffffffffffff1681526020018563ffffffff1681526020018463ffffffff1681526020018363ffffffff1681526020018263ffffffff168152602001600063ffffffff16815250606660008973ffffffffffffffffffffffffffffffffffffffff1673ffffffffffffffffffffffffffffffffffffffff16815260200190815260200160002060008201518160000160006101000a8154816fffffffffffffffffffffffffffffffff02191690836fffffffffffffffffffffffffffffffff16021790555060208201518160000160106101000a8154816fffffffffffffffffffffffffffffffff02191690836fffffffffffffffffffffffffffffffff16021790555060408201518160010160006101000a81548163ffffffff021916908363ffffffff16021790555060608201518160010160046101000a81548163ffffffff021916908363ffffffff16021790555060808201518160010160086101000a81548163ffffffff021916908363ffffffff16021790555060a082015181600101600c6101000a81548163ffffffff021916908363ffffffff16021790555060c08201518160010160106101000a81548163ffffffff021916908363ffffffff1602179055509050508673ffffffffffffffffffffffffffffffffffffffff167f63cebb3c44beb2c6876caaaf24d103b5f3db534da6fc89430ae29474580afed887878787878760405161119196959493929190958652602086019490945260408501929092526060840152608083015260a082015260c00190565b60405180910390a250505050505050565b6111aa61130e565b73ffffffffffffffffffffffffffffffffffffffff811661124d576040517f08c379a000000000000000000000000000000000000000000000000000000000815260206004820152602660248201527f4f776e61626c653a206e6577206f776e657220697320746865207a65726f206160448201527f6464726573730000000000000000000000000000000000000000000000000000606482015260840161034e565b61125681611740565b50565b6000806112658361138f565b5090949350505050565b600054610100900460ff16611306576040517f08c379a000000000000000000000000000000000000000000000000000000000815260206004820152602b60248201527f496e697469616c697a61626c653a20636f6e7472616374206973206e6f74206960448201527f6e697469616c697a696e67000000000000000000000000000000000000000000606482015260840161034e565b61088c6117cc565b60335473ffffffffffffffffffffffffffffffffffffffff16331461088c576040517f08c379a000000000000000000000000000000000000000000000000000000000815260206004820181905260248201527f4f776e61626c653a2063616c6c6572206973206e6f7420746865206f776e6572604482015260640161034e565b73ffffffffffffffffffffffffffffffffffffffff81166000908152606660209081526040808320815160e08101835281546fffffffffffffffffffffffffffffffff808216808452700100000000000000000000000000000000928390049091169583019590955260019092015463ffffffff80821694830194909452640100000000810484166060830152680100000000000000008104841660808301526c010000000000000000000000008104841660a08301529190910490911660c08201528291829190158015611478575060208101516fffffffffffffffffffffffffffffffff16155b1561148e57600080600093509350935050611739565b806040015163ffffffff164210156114b157600080600093509350935050611739565b600061151f61150f836040015163ffffffff166115098560a0015163ffffffff166115038760a0015163ffffffff166114fd896040015163ffffffff16426117b790919063ffffffff16565b9061186c565b90611878565b90611884565b836060015163ffffffff16611890565b90506000826040015163ffffffff168360c0015163ffffffff161015611546578251611549565b60005b6fffffffffffffffffffffffffffffffff16905060008061157e8560c0015163ffffffff16866040015163ffffffff166118a6565b905080841161159057600091506116d1565b846080015163ffffffff168410156115ab57600091506116d1565b60006115e28660a0015163ffffffff166114fd886040015163ffffffff16896060015163ffffffff166117b790919063ffffffff16565b9050856060015163ffffffff1685036116795760006116228760a0015163ffffffff166114fd896040015163ffffffff16866117b790919063ffffffff16565b905061167161165482611503858b602001516fffffffffffffffffffffffffffffffff1661186c90919063ffffffff16565b60208901516fffffffffffffffffffffffffffffffff16906117b7565b9350506116cf565b600061169c8760a0015163ffffffff166114fd85896117b790919063ffffffff16565b90506116cb81611503848a602001516fffffffffffffffffffffffffffffffff1661186c90919063ffffffff16565b9350505b505b5060006116de82846119f7565b90508015611728578160000361170b5750506040909201519194505063ffffffff16915060009050611739565b606090940151939650919450505063ffffffff1682149050611739565b600080600097509750975050505050505b9193909250565b6033805473ffffffffffffffffffffffffffffffffffffffff8381167fffffffffffffffffffffffff0000000000000000000000000000000000000000831681179093556040519116919082907f8be0079c531659141344cd1fd0a4f28419497f9722a3daafe3b4186f6b6457e090600090a35050565b60006117c382846119e4565b90505b92915050565b600054610100900460ff16611863576040517f08c379a000000000000000000000000000000000000000000000000000000000815260206004820152602b60248201527f496e697469616c697a61626c653a20636f6e7472616374206973206e6f74206960448201527f6e697469616c697a696e67000000000000000000000000000000000000000000606482015260840161034e565b61088c33611740565b60006117c38284611a0a565b60006117c38284611a1e565b60006117c382846119f7565b600081831061189f57816117c3565b5090919050565b600081831161189f57816117c3565b73ffffffffffffffffffffffffffffffffffffffff8116811461125657600080fd5b6000602082840312156118e957600080fd5b81356118f4816118b5565b9392505050565b600080600080600080600060e0888a03121561191657600080fd5b8735611921816118b5565b9960208901359950604089013598606081013598506080810135975060a0810135965060c00135945092505050565b60006020828403121561196257600080fd5b815180151581146118f457600080fd5b7f4e487b7100000000000000000000000000000000000000000000000000000000600052601260045260246000fd5b6000826119b0576119b0611972565b500690565b7f4e487b7100000000000000000000000000000000000000000000000000000000600052601160045260246000fd5b818103818111156117c6576117c66119b5565b808201808211156117c6576117c66119b5565b600082611a1957611a19611972565b500490565b80820281158282048414176117c6576117c66119b556fea26469706673582212201610c6f1213bccec7966bf4f147dad61e73b5d4ca460a5d21bbe78b5691972f264736f6c63430008150033",
    "linkReferences": {}
  },
  "methodIdentifiers": {
    "__TokenEscrow_init(address)": "1dcf0b30",
    "getWithdrawableAmount(address)": "f6777175",
    "owner()": "8da5cb5b",
    "removeVestingSchedule(address)": "322121c5",
    "renounceOwnership()": "715018a6",
    "setVestingSchedule(address,uint256,uint256,uint256,uint256,uint256,uint256)": "ea8582c4",
    "token()": "fc0c546a",
    "transferOwnership(address)": "f2fde38b",
    "vestingSchedules(address)": "fdb20ccb",
    "withdraw()": "3ccfd60b"
  },
  "id": 43
}